:020000040800F2
:10000000402100209D010008250F0008D5070008A9
:10001000210F0008E5010008091A0008000000008F
:10002000000000000000000000000000F5140008BF
:10003000E901000800000000551200080D16000834
:10004000B7010008B7010008B7010008B7010008B0
:10005000B7010008B7010008B7010008B7010008A0
:10006000B7010008B7010008B7010008B701000890
:10007000B7010008B7010008B7010008B701000880
:10008000B7010008B7010008B7010008B701000870
:10009000B7010008B7010008B7010008B701000860
:1000A000B7010008B7010008B7010008B701000850
:1000B000B7010008B7010008B7010008B701000840
:1000C000B7010008B7010008B7010008B701000830
:1000D000B7010008B7010008B7010008B701000820
:1000E000B7010008B7010008B7010008B701000810
:1000F000B7010008B7010008B7010008B701000800
:10010000B7010008B7010008B7010008B7010008EF
:10011000B7010008B7010008B7010008B7010008DF
:10012000B7010008B7010008B7010008B7010008CF
:10013000B7010008B7010008B7010008B7010008BF
:10014000B7010008B7010008B7010008B7010008AF
:10015000B7010008B7010008B7010008B70100089F
:10016000B7010008B7010008B7010008B70100088F
:10017000B7010008B7010008B7010008B70100087F
:10018000B7010008B7010008DFF80CD000F018F83C
:10019000004800472D1A00084021002006488047EB
:1001A00006480047FEE7FEE7FEE7FEE7FEE7FEE75C
:1001B000FEE7FEE7FEE7FEE74517000889010008B5
:1001C000064C074D06E0E06840F0010394E80700A4
:1001D00098471034AC42F6D3FFF7DAFF301B000823
:1001E000501B000800BFFEE770474FF0E02109698F
:1001F00021F001014FF0E022116145F20821414355
:10020000491E5161002191611146096941F00101C6
:10021000116100BF4FF0E021096901F4803100292C
:10022000F8D000214FF0E0221161916170474FF04A
:10023000E021096921F001014FF0E0221161C0EBDA
:10024000C00101EB4101491E51610021916111463C
:10025000096941F00101116100BF4FF0E021096916
:1002600001F480310029F8D000214FF0E022116123
:100270009161704710B50348007808B100F0F4FCB4
:1002800010BD00002400002010B50348007808B914
:1002900000F09EFC10BD00002400002010B50348B3
:1002A000007808B100F0CAFE10BD00003000002048
:1002B00010B50348007808B900F06EFE10BD0000CC
:1002C000300000202DE9F04104460D46B4F5003F12
:1002D00000D215B90120BDE8F081A6B2204600F099
:1002E00071FA074601212E4800F0F4FA2D4800F07B
:1002F0008BFB08B10120EEE700223946284800F0C8
:1003000079FB294800F080FB08B10120E3E73112B6
:10031000234800F077FB2448801C00F075FB08B1EF
:100320000120D8E7F1B21E4800F06CFB1E48801C8B
:1003300000F06AFB08B10120CDE70121184800F068
:10034000C9FA184800F060FB08B10120C3E7012298
:100350003946134800F04EFB1248401C00F054FB95
:1003600008B10120B7E700210D4800F035FA0D482B
:100370003F3000F049FB28B10121094800F02CFA78
:100380000120A8E7064800F031FB2870012104484D
:1003900000F0ACFA0121024800F01EFA00209AE7B2
:1003A0000054004001000300820007001CB500203B
:1003B000019000902EA001F01BFB06214FF400706D
:1003C00001F0F6FA32A001F013FB02216A2001F0DD
:1003D000EFFA6A214FF4007000F002F9002820D1F2
:1003E0002DA001F005FB01A94FF40070FFF76AFF93
:1003F00098B92EA001F0FCFA02219DF8040001F04A
:10040000D7FA9DF804006A2803D12FA001F0F0FA72
:100410000BE031A001F0ECFA07E034A001F0E8FABB
:1004200003E03AA001F0E4FA1CBD3DA001F0E0FABF
:1004300006214FF4007001F0BBFA41A001F0D8FA98
:1004400069464FF40070FFF73DFF58B93EA001F038
:10045000CFFA02219DF8000001F0AAFA2FA001F0C6
:10046000C7FA02E03DA001F0C3FA00BFDCE70000DC
:100470000D0A5B494E464F5D2053746172742077BC
:100480007269746520616464726573732000000092
:100490002064617461200000202D3E207772697411
:1004A0006520737563636573730D0A005B494E467F
:1004B0004F5D2056657269667920616674657220A9
:1004C00077726974653A2000202D3E207665726946
:1004D0006679206F6B0D0A00202D3E2076657269CB
:1004E0006679206661696C65640D0A005B4552524D
:1004F0004F525D207665726966792072656164206D
:100500006661696C65640D0A00000000202D3E20C4
:100510007772697465206661696C65640D0A000014
:100520005B494E464F5D205374616E64616C6F6E23
:100530006520726561642061646472657373200074
:10054000202D3E20000000007265616420737563F9
:10055000636573732076616C7565200072656164F4
:10056000206661696C65640D0A00000070B5044680
:100570000A2527E00121164800F0ACF9154800F0E3
:1005800043FA20B10121124800F0B0F91AE000222C
:1005900021460F4800F02EFA0F4800F035FA28B92E
:1005A00001210B4800F0A2F9002070BD0B4908485A
:1005B00000F033F90121064800F098F96420FFF7B4
:1005C00036FE00BF281EA5F10105D3D10120ECE7BE
:1005D00000540040010003008200070000040010E6
:1005E00013B50446B4F5003F01D301201CBD012220
:1005F00001A9204600F002F8F8E700002DE9F047D5
:1006000005460F46144607B114B90120BDE8F0872E
:100610002819B0F5003F01D90120F7E7E8B22044DE
:10062000B0F5807F01D90120F0E71FFA85F8284650
:1006300000F0C8F881460121254800F04BF9254813
:1006400000F0E2F908B10120E0E700224946204825
:1006500000F0D0F9204800F0D7F908B10120D5E723
:100660004FEA28211A4800F0CDF91B48801C00F001
:10067000CBF908B10120C9E708F0FF01144800F0E8
:10068000C1F91548801C00F0BFF908B10120BDE791
:1006900000260CE0B95D0E4800F0B4F90E48801C4D
:1006A00000F0B2F908B10120B0E7701C86B2A64292
:1006B000F0DB0121064800F019F90520FFF795FD50
:1006C0004846FFF753FF08B101209FE700209DE750
:1006D000005400400100030082000700F0B50A4604
:1006E00000210023002400BF3DE0012505FA01F3AD
:1006F000156805EA03049C4234D105684F000326BF
:10070000BE40B543056015794E00B54006683543D7
:1007100005601579012D02D01579022D16D1856855
:100720004F000326BE40B543856055794E00B54065
:10073000866835438560456801268E40B54345602F
:10074000456896798E40B6B235434560C5684F001E
:100750000326BE40B543C560D5794E00B540C66896
:100760003543C560491C1029BFD3F0BDF0B5002347
:1007700000244D07ED0E02FA05F3CE1000F120051E
:1007800055F826504E07F70E0F26BE40B543CF1042
:1007900000F1200646F82750CE1000F1200555F84C
:1007A000265045EA0304CE1000F1200545F8264006
:1007B000F0BD0246002013690B400BB1012000E0A0
:1007C000002070470146C1F30040A02202EB400028
:1007D000C0B2704700BFFEE721B1028842F48062D8
:1007E000028004E002884FF6FF331A40028070470F
:1007F00070B502460024002500230020958A138B43
:100800001B0445EA030626F07F4404EA01068E42F3
:1008100001D1012000E0002070BD002221F07F42C4
:10082000D3438382704721B1028842F001020280E3
:1008300004E002884FF6FE731A4002807047000001
:1008400000B587B00121480500F016FD0121022006
:1008500000F002FD4FF44070059002208DF8180062
:1008600001208DF81A0002208DF8190001208DF862
:100870001B0005A91448FFF731FF04220821124884
:10088000FFF774FF042209210F48FFF76FFF0F489D
:1008900001900020ADF808004BF6FF70ADF80A009B
:1008A0000020ADF80C004FF48060ADF80E000001A0
:1008B000ADF8100001A9064800F024F80121044811
:1008C000FFF7B1FF07B000BD00040240801A060028
:1008D0000054004021B1028842F48072028004E09A
:1008E00002884FF6FF631A400280704721B10288E8
:1008F00042F40072028004E002884FF6FF531A406F
:10090000028070472DE9FF4704460D460026B14698
:100910000427DFF8CC80A6884FF6C07006406846F2
:1009200000F0FCFCDDF808802E48B8FBF0F01FFA60
:1009300080F946EA0906A68020884FF6FE71084035
:10094000208000262849286888420CD82868400062
:10095000B8FBF0F087B2042F00DA04273E4309F118
:100960000100208427E0E8884BF6FF71884206D119
:10097000286800EB4000B8FBF0F087B209E0286877
:1009800000EBC00101EB0010B8FBF0F087B247F4B8
:100990008047C7F30B0008B947F0010747F4004050
:1009A00006434FF4967009FB00F04FF47A7190FB08
:1009B000F1F0401C2084A683208840F001002080B4
:1009C00026884FF6F5300640A88869890843064313
:1009D0002680A889298908432081BDE8FF87000077
:1009E00000127A0040420F00A08601000146088AEA
:1009F000C0B2704712B141F0010101E001F0FE0107
:100A0000018270470182704770B50446074D05E0CA
:100A1000281EA5F1010501D1012070BD2146044821
:100A2000FFF7E6FE0028F3D00020F6E7A0860100DD
:100A30000054004010B510210B48FFF7BAFE80B9F2
:100A40000A20FFF7D2FB10210748FFF7B2FE40B99A
:100A500000BF10210448FFF7ACFE0028F9D00120A8
:100A600010BD0020FCE700000010024010B5082176
:100A70000B48FFF79EFE80B90A20FFF7B6FB08215E
:100A80000748FFF796FE40B900BF08210448FFF76A
:100A900090FE0028F9D0012010BD0020FCE70000E6
:100AA000001002401CB50121084600F0D5FB0121D1
:100AB000102000F0D1FB0121102000F0CDFB01201F
:100AC000009000208DF804008DF8060002208DF8BB
:100AD00005008DF8070069460A48FFF7FFFD102062
:100AE000009001208DF8070069460748FFF7F6FDE2
:100AF0000820009001208DF8070069460248FFF7A2
:100B0000EDFD1CBD000002400010024010B50121A7
:100B10000C48FFF74EFE012811D10A20FFF765FBB4
:100B200001210848FFF745FE012808D100BF012137
:100B30000448FFF73EFE0128F9D0012010BD002037
:100B4000FCE70000000002402DE9F04107460C469A
:100B500015461E460FA000F04BFF304600F048FF40
:100B600013A000F045FF0621384600F021FF12A037
:100B700000F03EFF0221204600F01AFF11A000F015
:100B800037FF0221284600F013FF10A000F030FFCD
:100B9000BDE8F0815B4B4559305D20766572696632
:100BA00079206661696C20737461676520000000BC
:100BB0002061646472200000207461726765742093
:100BC0000000000020726561642000000D0A000032
:100BD00010B501201249087000201249086012A0C7
:100BE00000F006FF0621002000F0E2FE17A000F052
:100BF000FFFE0421012000F0DBFE16A000F0F8FE4D
:100C00000221AA2000F0D4FE15A000F0F1FE02217E
:100C1000552000F0CDFE13A000F0EAFE10BD00004C
:100C200024000020280000200D0A5B4B4559305D50
:100C30002062797465206C69666520746573742020
:100C4000737461727420616464722000206C656E3C
:100C500020000000207061747465726E2000000036
:100C60002F0000000D0A000038B500243DE02546A5
:100C7000AA212846FFF7B4FCA0B14AA000F0B8FEB4
:100C80000621284600F094FE50A000F0B1FE02219B
:100C9000AA2000F08DFE50A000F0AAFE4FA000F0A8
:100CA00007F938BD69462846FFF70CFB68B14EA02E
:100CB00000F09EFE0621284600F07AFE46A000F0D5
:100CC00097FE53A000F0F4F8EBE79DF80000AA2887
:100CD0000AD052A39DF80020AA212846FFF734FF2E
:100CE00051A000F0E5F8DCE7641C002CBFD0002424
:100CF0003DE0254655212846FFF772FCA0B14EA0E5
:100D000000F076FE0621284600F052FE2FA000F0EB
:100D10006FFE0221552000F04BFE2FA000F068FE70
:100D20002EA000F0C5F8BCE769462846FFF7CAFACE
:100D300068B14BA000F05CFE0621284600F038FEAA
:100D400025A000F055FE32A000F0B2F8A9E79DF80A
:100D5000000055280AD04CA39DF8002055212846B4
:100D6000FFF7F2FE30A000F0A3F89AE7641C002C15
:100D7000BFD048480068401C4649086008460068E3
:100D80006421B0FBF1F201FB120048B942A000F06F
:100D90002FFE4048006800F0E5FD0FA000F028FE9F
:100DA00000BF7EE75B4B4559305D20777269746503
:100DB000206661696C20737461676520706174746A
:100DC00065726E312061646472200000207461726B
:100DD00067657420000000000D0A000077726974D6
:100DE00065206572726F72005B4B4559305D2072F1
:100DF000656164206661696C207374616765207049
:100E000061747465726E3120616464722000000048
:100E100072656164206572726F7200007061747433
:100E200065726E3100000000766572696679206D2A
:100E300069736D61746368005B4B4559305D207761
:100E400072697465206661696C20737461676520DE
:100E50007061747465726E32206164647220000087
:100E60005B4B4559305D2072656164206661696C39
:100E7000207374616765207061747465726E3220CE
:100E800061646472200000007061747465726E3277
:100E900000000000280000205B4B4559305D2073A6
:100EA000756363657373206379636C6573200000F9
:100EB00010B5044600200949087009A000F098FD0B
:100EC000204600F095FD0FA000F092FD124800684A
:100ED00000F048FD11A000F08BFD10BD24000020A3
:100EE0005B4B4559305D2062797465206C6966659D
:100EF00020746573742073746F7020726561736FF2
:100F00006E3A2000207375636365737320637963A1
:100F10006C65732000000000280000200D0A00000E
:100F200000BFFEE77047000070B506460C46154648
:100F30000CA000F05DFD0621304600F039FD10A048
:100F400000F056FD0221204600F032FD0FA000F017
:100F50004FFD0221284600F02BFD0EA000F048FDB9
:100F600070BD00005B706167655D207665726966C3
:100F700079206661696C2061646472200000000061
:100F80002074617267657420000000002072656142
:100F9000642000000D0A000010B5012014490870FB
:100FA000002014490860144908701449087014A0FE
:100FB00000F01EFD06214FF4807000F0F9FC18A02F
:100FC00000F016FD0421880100F0F2FC16A000F0EC
:100FD0000FFD0221AA2000F0EBFC16A000F008FD96
:100FE0000221552000F0E4FC13A000F001FD10BD2B
:100FF000300000203400002038000020390000209C
:101000000D0A5B706167655D2070616765207465BE
:1010100073742073746172742061646472200000C0
:10102000206C656E20000000207061747465726E23
:10103000200000002F0000000D0A0000F8B54FF45A
:1010400080754A48007808B9AA2000E05520064675
:1010500005F58070B0F5003F03D945A000F0C2F857
:10106000F8BDE8B218B146A000F0BCF8F8E70024DB
:1010700003E048480655601C84B2FF2CF9D94FF4B0
:10108000807244492846FFF7B9FA18B142A000F02F
:10109000A9F8E5E700241BE0002000902F1969461D
:1010A0003846FFF70FF918B140A000F09BF8D7E7DA
:1010B0009DF80000B04209D09DF800203146384626
:1010C000FFF732FF3CA000F08DF8C9E7601C84B246
:1010D000FF2CE1D92548007808B9552000E0AA2066
:1010E0000646002403E02B480655601C84B2FF2C02
:1010F000F9D94FF4807227492846FFF77FFA18B1D3
:1011000025A000F06FF8ABE700241BE00020009062
:101110002F1969463846FFF7D5F818B123A000F01B
:1011200061F89DE79DF80000B04209D09DF80020CD
:1011300031463846FFF7F8FE1FA000F053F88FE75E
:10114000601C84B2FF2CE1D91F480068401C1E4976
:1011500008601EA000F04CFC1B48006800F002FC78
:101160001EA000F045FC00BF7AE700003800002018
:1011700072616E6765206F766572666C6F770000CE
:1011800070616765206164647220756E616C696767
:101190006E6564003C0000207061676520777269AD
:1011A0007465206572726F72000000007265616480
:1011B000206572726F720000766572696679206DC3
:1011C00069736D6174636800340000205B7061674F
:1011D000655D20436F756E7420000000204F4B0D3D
:1011E0000A00000010B5044600200A4908700A49A8
:1011F00008700AA000F0FCFB204600F0F9FB0FA0ED
:1012000000F0F6FB1148006800F0ACFB10A000F005
:10121000EFFB10BD30000020390000205B706167DB
:10122000655D207061676520746573742073746FE9
:101230007020726561736F6E3A20000020746F74C5
:10124000616C206379636C657320000034000020BA
:101250000D0A00007047000029B1064A12680243D7
:10126000044B1A6004E0034A12688243014B1A607F
:10127000704700003038024029B1064A1268024324
:10128000044B1A6004E0034A12688243014B1A605F
:10129000704700004038024029B1064A12680243F4
:1012A000044B1A6004E0034A12688243014B1A603F
:1012B00070470000443802401448006840F00100C4
:1012C0001249086000201149083108600F48006881
:1012D0000F4908400D4908600E48091D08600E4876
:1012E0000A49843108600B481038091D0860074816
:1012F000006820F4802005490860002003490C3173
:10130000086002498C3108607047000000380240D4
:10131000FFFFF6EA1030002400300020F0B5002175
:1013200000220024022500260223324F3F6807F0E6
:101330000C0121B1042905D0082937D105E02E4F31
:10134000076036E02D4F076033E02A4F3F1F3F68AC
:10135000C7F38056274F3F1F3F6807F03F036EB12A
:10136000264FB7FBF3F7DFF88CC0ACF1040CDCF8C8
:1013700000C0CCF3881C07FB0CF40CE01E4FB7FB3D
:10138000F3F7DFF870C0ACF1040CDCF800C0CCF36C
:10139000881C07FB0CF4174F3F1F3F68C7F301473A
:1013A0007F1C7D00B4FBF5F7076002E0124F076079
:1013B00000BF00BF0F4F3F6807F0F0010909104F51
:1013C0007A5C0768D74047600A4F3F6807F4E051EE
:1013D000890A0B4F7A5C4768D7408760054F3F68A2
:1013E00007F46041490B064F7A5C4768D740C760F5
:1013F000F0BD0000083802400024F40000127A001A
:101400000000002010B501460022002300204A11F0
:10141000012A02D10A4C236808E0022A03D1084CB1
:101420007034236802E0064C7434236801F01F0214
:10143000012494401C400CB1012000E0002010BDAC
:10144000003802400248006800F00C0070470000BD
:101450000838024001460020034A106820F0F000DE
:101460000843106070470000083802400021024A1B
:101470001170114608707047023802400146002082
:10148000034A106820F4E0500843106070470000E1
:101490000838024001460020034A106820F46040EA
:1014A00040EAC100106070470838024001490866F0
:1014B000704700000000474270B5049C41EA821565
:1014C0000126C6EB530645EA0645054345EA046591
:1014D000014E356070BD0000043802400146002016
:1014E000034A106820F003000843106070470000B2
:1014F00008380240704700000CB5002001900090B1
:101500003448006840F480303249086000BF3148F8
:10151000006800F4003000900198401C0190009891
:1015200018B90198B0F5A04FF1D12A48006800F42D
:10153000003010B10120009001E0002000900098E0
:10154000012846D123484030006840F080502149AE
:10155000403108602048006840F440401E4908605F
:101560001C48083000681B490831086008460068BC
:1015700040F4004008600846006840F4A05008604D
:101580001648091F0860081F006840F08070091F96
:10159000086000BF0F48006800F000700028F9D014
:1015A00040F205700E4908600A480830006820F0D3
:1015B00003000849083108600846006840F002004E
:1015C000086000BF03480830006800F00C000828DD
:1015D000F8D10CBD003802400070004008544007AC
:1015E000003C0240042808D14FF0E021096941F095
:1015F00004014FF0E022116107E04FF0E02109699A
:1016000021F004014FF0E02211617047704710B5DE
:101610006FF00400FFF7E6FF10BD08B5FFF74CFEC2
:101620000120FFF723FF00BF3120FFF7EBFE00286A
:10163000FAD0072002234FF4A87208210090C804B2
:10164000FFF73AFF0120FFF731FF00BF3920FFF716
:10165000D9FE0028FAD00220FFF740FF00BFFFF7B5
:10166000F1FE0828FBD10020FFF7F4FE4FF4A05054
:10167000FFF704FF4FF48050FFF70CFF00F002F873
:1016800008BD000070B500200022022300240221C2
:10169000274D2D6805F00C0020B1042806D008283D
:1016A00034D107E0234D244E356033E0234D224EE4
:1016B00035602FE01E4D2D1F2D68C5F380541C4D45
:1016C0002D1F2D6805F03F0154B11C4DB5FBF1F500
:1016D000174E361F3668C6F3881605FB06F209E07A
:1016E000144DB5FBF1F5124E361F3668C6F3881659
:1016F00005FB06F20E4D2D1F2D68C5F301456D1C2F
:101700006B00B2FBF3F50C4E356003E0094D0A4E59
:10171000356000BF00BF064D2D68C5F30315084EA8
:10172000705D054D2D68C540034E356070BD0000ED
:10173000083802400024F4001000002000127A0053
:101740001400002010B51548006840F470001349DB
:1017500008601348006840F001001149086000204B
:101760000F49083108600E4800680E4908400C49CE
:1017700008600D48091D0860081F006820F48020DB
:10178000091F0860002006490C310860FFF7B4FE0D
:101790004FF0006001498039086010BD88ED00E01D
:1017A00000380240FFFFF6FE1030002400B587B07D
:1017B00001211020FFF770FD01210846FFF74CFDC5
:1017C0004FF4C060059002208DF8180000208DF8BD
:1017D0001A0002208DF8190001208DF81B0005A9C0
:1017E0001248FEF77BFF072209211048FEF7BEFFD3
:1017F00007220A210D48FEF7B9FF4FF4E1300190AE
:101800000020ADF80800ADF80A00ADF80C00ADF806
:1018100010000C20ADF80E0001A9054800F024F8D6
:101820000121034800F006F807B000BD00000240A7
:101830000010014021B1828942F40052828104E00B
:1018400082894DF6FF731A4082817047024600205C
:10185000B1F5007F00D100BF13880B400BB1012010
:1018600000E00020704700002DE9FF4705460E46C6
:101870000024A14600BFA046B08900B100BF2C8A59
:1018800024F44054F08804432C82AC8941F20C606B
:101890008443B08831890843718908430443AC818B
:1018A000AC8A24F44074B0890443AC826846FFF7E4
:1018B00035FD2048854202D01F48854202D1DDF81F
:1018C0000C9001E0DDF80890A88900F4004040B1D8
:1018D00009EBC90000EB091031684900B0FBF1F7D2
:1018E00007E009EBC90000EB091031688900B0FB83
:1018F000F1F76420B7FBF0F004012009642101FB3B
:101900001078A88900F4004040B1322000EBC800F4
:10191000B0FBF1F000F00700044308E0322000EBD8
:1019200008106421B0FBF1F000F00F0004432C819B
:10193000BDE8FF87001001400014014010B50446C7
:1019400000BF80210448FFF781FF0028F9D021461D
:10195000014800F003F810BD00100140C1F3080277
:10196000828070473EB5044600251CB93020FFF741
:10197000E5FF3EBD0DE00A20B4FBF0F100FB114095
:10198000303029466A1C55B20DF801000A20B4FB1C
:10199000F0F40CB10A2DEEDB03E01DF80500FFF7B3
:1019A000CDFF281EA5F101014DB2F6DC00BFE0E736
:1019B0003EB505460C46611E48B208E005F00F0131
:1019C000094A515C0DF800102D09411E48B200284B
:1019D000F4DA00200DF8040004A000F009F86846CD
:1019E00000F006F83EBD00001C1B00083078000027
:1019F00010B5044603E014F8010BFFF79FFF14B184
:101A000020780028F7D110BD00BFFEE702E008C82B
:101A1000121F08C1002AFAD170477047002001E068
:101A200001C1121F002AFBD170470000FFF7F5FD2E
:101A3000FFF7EDFDFFF736F8FFF7B8FEFEF700FF02
:101A400014A0FFF7D5FF15A0FFF7D2FF16A0FFF7F0
:101A5000CFFF19A0FFF7CCFF20A0FFF7C9FF27A0F9
:101A6000FFF7C6FF15E0FFF751F808B1FEF79EFC3F
:101A7000FEF7E0FF08B1FEF707FCFEF7F7FF08B13D
:101A8000FEF716FCFEF7F6FBFEF708FC0120FEF75A
:101A9000ACFBE8E70D0A3D3D3D3D2000464D3234AC
:101AA0004E4D3031414933002074657374203D3D03
:101AB0003D3D0D0A00000000574B5F55503A207322
:101AC000696E676C65206164647265737320522F60
:101AD000572064656D6F0D0A000000004B455930BA
:101AE0003A2062797465206C696665207465737448
:101AF0002073746172740D0A000000004B45593167
:101B00003A2070616765206C69666520746573743E
:101B10002073746172740D0A00000000303132339A
:101B200034353637383941424344454600000000D9
:101B3000501B0008000000203C0000000C1A0008A8
:101B40008C1B00083C000020042100001C1A000827
:101B50000000000001020304010203040607080953
:101B6000007A030A000000000000000001020304E4
:101B70000607080900000000000000000000000047
:0C1B800000000000000000000000000059
:040000050800018965
:00000001FF
