:020000040800F2
:10000000382000209D010008090E0008BB060008EA
:10001000050E0008E5010008251800080000000092
:1000200000000000000000000000000011130008A4
:10003000E901000800000000711000082914000800
:10004000B7010008B7010008B7010008B7010008B0
:10005000B7010008B7010008B7010008B7010008A0
:10006000B7010008B7010008B7010008B701000890
:10007000B7010008B7010008B7010008B701000880
:10008000B7010008B7010008B7010008B701000870
:10009000B7010008B7010008B7010008B701000860
:1000A000B7010008B7010008B7010008B701000850
:1000B000B7010008B7010008B7010008B701000840
:1000C000B7010008B7010008B7010008B701000830
:1000D000B7010008B7010008B7010008B701000820
:1000E000B7010008B7010008B7010008B701000810
:1000F000B7010008B7010008B7010008B701000800
:10010000B7010008B7010008B7010008B7010008EF
:10011000B7010008B7010008B7010008B7010008DF
:10012000B7010008B7010008B7010008B7010008CF
:10013000B7010008B7010008B7010008B7010008BF
:10014000B7010008B7010008B7010008B7010008AF
:10015000B7010008B7010008B7010008B70100089F
:10016000B7010008B7010008B7010008B70100088F
:10017000B7010008B7010008B7010008B70100087F
:10018000B7010008B7010008DFF80CD000F018F83C
:1001900000480047491800083820002006488047DA
:1001A00006480047FEE7FEE7FEE7FEE7FEE7FEE75C
:1001B000FEE7FEE7FEE7FEE761150008890100089B
:1001C000064C074D06E0E06840F0010394E80700A4
:1001D00098471034AC42F6D3FFF7DAFF5019000805
:1001E0007019000800BFFEE770474FF0E021096971
:1001F00021F001014FF0E022116145F20821414355
:10020000491E5161002191611146096941F00101C6
:10021000116100BF4FF0E021096901F4803100292C
:10022000F8D000214FF0E022116191617047000089
:1002300010B50348007808B100F084FC10BD000040
:100240002400002010B50348007808B900F02CFC09
:1002500010BD00002400002010B50348007808B14C
:1002600000F026FE10BD00002C00002010B5034851
:10027000007808B900F0CAFD10BD00002C00002075
:100280002DE9F04104460D46B4F5005F00D215B9E2
:100290000120BDE8F081A6B2204600F00BFA074627
:1002A00001212E4800F082FA2D4800F019FB08B118
:1002B0000120EEE700223946284800F007FB2948D4
:1002C00000F00EFB08B10120E3E73112234800F0F3
:1002D00005FB2448801C00F003FB08B10120D8E78F
:1002E000F1B21E4800F0FAFA1E48801C00F0F8FA3D
:1002F00008B10120CDE70121184800F057FA18484D
:1003000000F0EEFA08B10120C3E701223946134894
:1003100000F0DCFA1248401C00F0E2FA08B10120BB
:10032000B7E700210D4800F0CAF90D483F3000F052
:10033000D7FA28B10121094800F0C1F90120A8E746
:10034000064800F0BFFA28700121044800F03AFA8C
:100350000121024800F0B3F900209AE70054004060
:1003600001000300820007001CB5002001900090EE
:100370002EA001F04BFA06214FF4007001F026FA8E
:1003800032A001F043FA02216A2001F01FFA6A212B
:100390004FF4007000F0C8F8002820D12DA001F023
:1003A00035FA01A94FF40070FFF76AFF98B92EA043
:1003B00001F02CFA02219DF8040001F007FA9DF8E3
:1003C00004006A2803D12FA001F020FA0BE031A02D
:1003D00001F01CFA07E034A001F018FA03E03AA09B
:1003E00001F014FA1CBD3DA001F010FA06214FF4F3
:1003F000007001F0EBF941A001F008FA69464FF4F2
:100400000070FFF73DFF58B93EA001F0FFF902214F
:100410009DF8000001F0DAF92FA001F0F7F902E0F1
:100420003DA001F0F3F900BFDCE700000D0A5B49D5
:100430004E464F5D20537461727420777269746503
:10044000206164647265737320000000206461742D
:1004500061200000202D3E2077726974652073753D
:1004600063636573730D0A005B494E464F5D20560A
:100470006572696679206166746572207772697445
:10048000653A2000202D3E20766572696679206FDE
:100490006B0D0A00202D3E20766572696679206614
:1004A00061696C65640D0A005B4552524F525D20D4
:1004B0007665726966792072656164206661696C2F
:1004C00065640D0A00000000202D3E2077726974DB
:1004D00065206661696C65640D0A00005B494E46E3
:1004E0004F5D205374616E64616C6F6E6520726540
:1004F000616420616464726573732000202D3E2066
:100500000000000072656164207375636365737336
:100510002076616C75652000726561642066616992
:100520006C65640D0A0000002DE9F04104460E469A
:10053000B4F5005F02D30120BDE8F081A5B22046EA
:1005400000F0B8F8074601211D4800F02FF91D48BA
:1005500000F0C6F908B10120EEE70022394618483C
:1005600000F0B4F9184800F0BBF908B10120E3E746
:100570002912134800F0B2F91348801C00F0B0F9BA
:1005800008B10120D8E7E9B20D4800F0A7F90E48FC
:10059000801C00F0A5F908B10120CDE731460848DC
:1005A00000F09CF90848801C00F09AF908B101207D
:1005B000C2E70121024800F005F90020BCE7000075
:1005C000005400400100030082000700F0B50A4615
:1005D00000210023002400BF3DE0012505FA01F3BE
:1005E000156805EA03049C4234D105684F000326D0
:1005F000BE40B543056015794E00B54006683543E9
:1006000005601579012D02D01579022D16D1856866
:100610004F000326BE40B543856055794E00B54076
:10062000866835438560456801268E40B543456040
:10063000456896798E40B6B235434560C5684F002F
:100640000326BE40B543C560D5794E00B540C668A7
:100650003543C560491C1029BFD3F0BDF0B5002358
:1006600000244D07ED0E02FA05F3CE1000F120052F
:1006700055F826504E07F70E0F26BE40B543CF1053
:1006800000F1200646F82750CE1000F1200555F85D
:10069000265045EA0304CE1000F1200545F8264017
:1006A000F0BD0246002013690B400BB1012000E0B1
:1006B000002070470146A020704700BFFEE721B12F
:1006C000028842F48062028004E002884FF6FF3321
:1006D0001A400280704770B50246002400250023AE
:1006E0000020958A138B1B0445EA030626F07F44FD
:1006F00004EA01068E4201D1012000E0002070BD15
:1007000021B1028842F00102028004E002884FF623
:10071000FE731A400280704700B587B0012148057A
:1007200000F0B8FC0121022000F0A4FC4FF440705E
:10073000059002208DF8180001208DF81A00022083
:100740008DF8190001208DF81B0005A91448FFF74A
:100750003DFF042208211248FFF780FF04220921EF
:100760000F48FFF77BFF0F4801900020ADF808000D
:100770004BF6FF70ADF80A000020ADF80C004FF406
:100780008060ADF80E000001ADF8100001A9064828
:1007900000F024F801210448FFF7B2FF07B000BDC4
:1007A00000040240801A06000054004021B1028873
:1007B00042F48072028004E002884FF6FF631A4020
:1007C0000280704721B1028842F40072028004E086
:1007D00002884FF6FF531A40028070472DE9FF4709
:1007E00004460D460026B1460427DFF8CC80A688D3
:1007F0004FF6C0700640684600F09EFCDDF80880A9
:100800002E48B8FBF0F01FFA80F946EA0906A680E8
:1008100020884FF6FE71084020800026284928686D
:1008200088420CD828684000B8FBF0F087B2042F4B
:1008300000DA04273E4309F10100208427E0E8881C
:100840004BF6FF71884206D1286800EB4000B8FBE8
:10085000F0F087B209E0286800EBC00101EB00105E
:10086000B8FBF0F087B247F48047C7F30B0008B934
:1008700047F0010747F4004006434FF4967009FB28
:1008800000F04FF47A7190FBF1F0401C2084A683B5
:10089000208840F00100208026884FF6F530064081
:1008A000A8886989084306432680A88929890843BE
:1008B0002081BDE8FF87000000127A0040420F004F
:1008C000A08601000146088AC0B2704712B141F00B
:1008D000010101E001F0FE010182704701827047D1
:1008E00070B50446074D05E0281EA5F1010501D1AC
:1008F000012070BD21460448FFF7EDFE0028F3D02B
:100900000020F6E7A08601000054004010B5102139
:100910000B48FFF7C6FE80B90A20FFF766FC1021DE
:100920000748FFF7BEFE40B900BF10210448FFF79B
:10093000B8FE0028F9D0012010BD0020FCE700001F
:100940000010024010B508210B48FFF7AAFE80B93D
:100950000A20FFF74AFC08210748FFF7A2FE40B92A
:1009600000BF08210448FFF79CFE0028F9D00120B1
:1009700010BD0020FCE70000001002401CB5012162
:10098000084600F077FB0121102000F073FB0121E5
:10099000102000F06FFB0120009000208DF8040073
:1009A0008DF8060002208DF805008DF807006946D5
:1009B0000A48FFF70BFE1020009001208DF8070079
:1009C00069460748FFF702FE0820009001208DF8D5
:1009D000070069460248FFF7F9FD1CBD0000024010
:1009E0000010024010B501210C48FFF75AFE012803
:1009F00011D10A20FFF7F9FB01210848FFF751FE4A
:100A0000012808D100BF01210448FFF74AFE012850
:100A1000F9D0012010BD0020FCE7000000000240DA
:100A20002DE9F04107460C4615461E460FA000F082
:100A3000EDFE304600F0EAFE13A000F0E7FE0621CE
:100A4000384600F0C3FE12A000F0E0FE022120466E
:100A500000F0BCFE11A000F0D9FE0221284600F0F3
:100A6000B5FE10A000F0D2FEBDE8F0815B4B455909
:100A7000305D20766572696679206661696C2073E5
:100A800074616765200000002061646472200000CA
:100A90002074617267657420000000002072656137
:100AA000642000000D0A000010B5012012490870F2
:100AB00000201249086012A000F0A8FE06210020C4
:100AC00000F084FE17A000F0A1FE0421642000F0D5
:100AD0007DFE16A000F09AFE0221AA2000F076FE0C
:100AE00015A000F093FE0221552000F06FFE13A028
:100AF00000F08CFE10BD0000240000202800002023
:100B00000D0A5B4B4559305D2062797465206C6934
:100B100066652074657374207374617274206164F7
:100B200064722000206C656E2000000020706174EB
:100B30007465726E200000002F0000000D0A0D0A7F
:100B40000000000038B500243FE02546AA212846D1
:100B5000FFF7EAFCA0B14CA000F058FE06212846A1
:100B600000F034FE52A000F051FE0221AA2000F055
:100B70002DFE52A000F04AFE51A000F00BF938BD46
:100B80000020009069462846FFF77AFB68B14FA025
:100B900000F03CFE0621284600F018FE47A000F0B9
:100BA00035FE54A000F0F6F8E9E79DF80000AA2809
:100BB0000AD053A39DF80020AA212846FFF730FF52
:100BC00052A000F0E7F8DAE7641C642CBDD30024DF
:100BD0003FE0254655212846FFF7A6FCA0B14FA0CF
:100BE00000F014FE0621284600F0F0FD30A000F0D1
:100BF0000DFE0221552000F0E9FD30A000F006FEB8
:100C00002FA000F0C7F8BAE70020009069462846F8
:100C1000FFF736FB68B14BA000F0F8FD062128462F
:100C200000F0D4FD25A000F0F1FD32A000F0B2F8F4
:100C3000A5E79DF8000055280AD04CA39DF8002098
:100C400055212846FFF7ECFE30A000F0A3F896E708
:100C5000641C642CBDD348480068401C46490860A9
:100C6000084600686421B0FBF1F201FB120048B9AC
:100C700042A000F0CBFD4048006800F081FD0FA0CD
:100C800000F0C4FD00BF7AE75B4B4559305D20772B
:100C900072697465206661696C2073746167652090
:100CA0007061747465726E3120616464722000003A
:100CB0002074617267657420000000000D0A000056
:100CC0007772697465206572726F72005B4B45596B
:100CD000305D2072656164206661696C20737461A7
:100CE0006765207061747465726E3120616464722E
:100CF0002000000072656164206572726F720000EE
:100D00007061747465726E310000000076657269FE
:100D10006679206D69736D61746368005B4B45593A
:100D2000305D207772697465206661696C20737428
:100D3000616765207061747465726E3220616464ED
:100D4000722000005B4B4559305D20726561642064
:100D50006661696C20737461676520706174746585
:100D6000726E3220616464722000000070617474DD
:100D700065726E3200000000280000205B4B455970
:100D8000305D2073756363657373206379636C658D
:100D90007320000010B5044600200949087009A01E
:100DA00000F034FD204600F031FD0FA000F02EFDD4
:100DB0001248006800F0E4FC11A000F027FD10BD0F
:100DC000240000205B4B4559305D2062797465201A
:100DD0006C69666520746573742073746F7020721B
:100DE0006561736F6E3A200020737563636573737A
:100DF000206379636C6573200000000028000020E8
:100E00000D0A000000BFFEE77047000010B501208A
:100E100014490870002014490860144908701449E6
:100E2000087014A000F0F2FC06214FF4006000F0FE
:100E3000CDFC18A000F0EAFC0421202000F0C6FC44
:100E400016A000F0E3FC0221552000F0BFFC16A024
:100E500000F0DCFC0221AA2000F0B8FC13A000F096
:100E6000D5FC10BD2C0000203000002034000020F4
:100E7000350000200D0A5B706167655D2070616759
:100E80006520746573742073746172742061646486
:100E900072200000206C656E2000000020706174DC
:100EA0007465726E200000002F0000000D0A000023
:100EB000F8B53848007808B9552000E0AA20064661
:100EC0004FF40065002411E03348007818B133A0D6
:100ED00000F096F8F8BD28193146FFF725FB18B148
:100EE00031A000F08DF8F5E7601C84B2202CEBD324
:100EF00000242FE0002000902F192748007818B117
:100F000026A000F07DF8E5E769463846FFF7B8F916
:100F100018B128A000F074F8DCE79DF80000B0429A
:100F200016D027A000F072FC27480068401C00F093
:100F300027FC26A000F06AFC02219DF8000000F0CA
:100F400045FC24A000F062FC23A000F059F8C1E7A2
:100F5000601C84B2202CCDD30F48007818B10FA0AC
:100F600000F04EF8B6E718480068401C16490860C3
:100F70000848007880F00100064908701AA000F0C7
:100F800045FC1148006800F0FBFB1BA000F03EFC94
:100F900000BF9FE734000020350000206D616E75B2
:100FA000616C2073746F700077726974652065726C
:100FB000726F720072656164206572726F720000F8
:100FC000436F756E7420000030000020204E4F20CB
:100FD000000000000D0A000064617461206D6973F7
:100FE0006D617463680000005B706167655D20433C
:100FF0006F756E7420000000204F4B0D0A0000003A
:1010000010B5044600200A4908700A4908700AA071
:1010100000F0FCFB204600F0F9FB0FA000F0F6FB0F
:101020001148006800F0ACFB10A000F0EFFB10BD11
:101030002C000020350000205B706167655D20702A
:1010400061676520746573742073746F70207265B6
:1010500061736F6E3A20000020746F74616C2063BE
:1010600079636C6573200000300000200D0A0000D9
:101070007047000029B1064A12680243044B1A6007
:1010800004E0034A12688243014B1A607047000073
:101090003038024029B1064A12680243044B1A60F4
:1010A00004E0034A12688243014B1A607047000053
:1010B0004038024029B1064A12680243044B1A60C4
:1010C00004E0034A12688243014B1A607047000033
:1010D000443802401448006840F00100124908609A
:1010E00000201149083108600F4800680F49084086
:1010F0000D4908600E48091D08600E480A498431F0
:1011000008600B481038091D08600748006820F483
:10111000802005490860002003490C31086002491D
:101120008C3108607047000000380240FFFFF6EA8B
:101130001030002400300020F0B5002100220024EF
:10114000022500260223324F3F6807F00C0121B12F
:10115000042905D0082937D105E02E4F076036E075
:101160002D4F076033E02A4F3F1F3F68C7F380567B
:10117000274F3F1F3F6807F03F036EB1264FB7FB75
:10118000F3F7DFF88CC0ACF1040CDCF800C0CCF352
:10119000881C07FB0CF40CE01E4FB7FBF3F7DFF8DD
:1011A00070C0ACF1040CDCF800C0CCF3881C07FB69
:1011B0000CF4174F3F1F3F68C7F301477F1C7D00AA
:1011C000B4FBF5F7076002E0124F076000BF00BFF5
:1011D0000F4F3F6807F0F0010909104F7A5C07686C
:1011E000D74047600A4F3F6807F4E051890A0B4F28
:1011F0007A5C4768D7408760054F3F6807F46041D5
:10120000490B064F7A5C4768D740C760F0BD0000C5
:10121000083802400024F40000127A000000002088
:1012200010B501460022002300204A11012A02D1F4
:101230000A4C236808E0022A03D1084C7034236862
:1012400002E0064C7434236801F01F02012494402C
:101250001C400CB1012000E0002010BD003802400D
:101260000248006800F00C00704700000838024097
:1012700001460020034A106820F0F0000843106087
:1012800070470000083802400021024A11701146E0
:10129000087070470238024001460020034A106877
:1012A00020F4E05008431060704700000838024006
:1012B00001460020034A106820F4604040EAC10063
:1012C0001060704708380240014908667047000006
:1012D0000000474270B5049C41EA82150126C6EB26
:1012E000530645EA0645054345EA0465014E356067
:1012F00070BD00000438024001460020034A106817
:1013000020F00300084310607047000008380240D6
:10131000704700000CB50020019000903448006830
:1013200040F480303249086000BF3148006800F462
:10133000003000900198401C0190009818B9019865
:10134000B0F5A04FF1D12A48006800F4003010B188
:101350000120009001E0002000900098012846D173
:1013600023484030006840F08050214940310860F7
:101370002048006840F440401E4908601C4808307E
:1013800000681B49083108600846006840F40040C6
:1013900008600846006840F4A05008601648091F1D
:1013A0000860081F006840F08070091F086000BFD7
:1013B0000F48006800F000700028F9D040F2057076
:1013C0000E4908600A480830006820F00300084908
:1013D000083108600846006840F00200086000BF5D
:1013E00003480830006800F00C000828F8D10CBD54
:1013F000003802400070004008544007003C0240A2
:10140000042808D14FF0E021096941F004014FF0B0
:10141000E022116107E04FF0E021096921F00401A9
:101420004FF0E02211617047704710B56FF0040073
:10143000FFF7E6FF10BD08B5FFF74CFE0120FFF7F0
:1014400023FF00BF3120FFF7EBFE0028FAD0072072
:1014500002234FF4A87208210090C804FFF73AFF56
:101460000120FFF731FF00BF3920FFF7D9FE002828
:10147000FAD00220FFF740FF00BFFFF7F1FE082877
:10148000FBD10020FFF7F4FE4FF4A050FFF704FF5C
:101490004FF48050FFF70CFF00F002F808BD000089
:1014A00070B500200022022300240221274D2D6860
:1014B00005F00C0020B1042806D0082834D107E03C
:1014C000234D244E356033E0234D224E35602FE00E
:1014D0001E4D2D1F2D68C5F380541C4D2D1F2D68EA
:1014E00005F03F0154B11C4DB5FBF1F5174E361F09
:1014F0003668C6F3881605FB06F209E0144DB5FB05
:10150000F1F5124E361F3668C6F3881605FB06F253
:101510000E4D2D1F2D68C5F301456D1C6B00B2FBF0
:10152000F3F50C4E356003E0094D0A4E356000BFFF
:1015300000BF064D2D68C5F30315084E705D054DBF
:101540002D68C540034E356070BD0000083802406C
:101550000024F4001000002000127A001400002083
:1015600010B51548006840F470001349086013482E
:10157000006840F001001149086000200F4908315F
:1015800008600E4800680E4908400C4908600D4884
:10159000091D0860081F006820F48020091F0860EA
:1015A000002006490C310860FFF7B4FE4FF00060E0
:1015B00001498039086010BD88ED00E00038024024
:1015C000FFFFF6FE1030002400B587B00121102087
:1015D000FFF770FD01210846FFF74CFD4FF4C06096
:1015E000059002208DF8180000208DF81A000220C6
:1015F0008DF8190001208DF81B0005A91248FEF78F
:10160000E5FF072209211048FFF728F807220A21E1
:101610000D48FFF723F84FF4E13001900020ADF8BA
:101620000800ADF80A00ADF80C00ADF810000C2071
:10163000ADF80E0001A9054800F024F80121034887
:1016400000F006F807B000BD0000024000100140A5
:1016500021B1828942F40052828104E082894DF6F0
:10166000FF731A408281704702460020B1F5007F67
:1016700000D100BF13880B400BB1012000E0002017
:10168000704700002DE9FF4705460E460024A1469D
:1016900000BFA046B08900B100BF2C8A24F440549A
:1016A000F08804432C82AC8941F20C608443B088FA
:1016B00031890843718908430443AC81AC8A24F41E
:1016C0004074B0890443AC826846FFF735FD20487A
:1016D000854202D01F48854202D1DDF80C9001E01E
:1016E000DDF80890A88900F4004040B109EBC9007A
:1016F00000EB091031684900B0FBF1F707E009EB96
:10170000C90000EB091031688900B0FBF1F76420D3
:10171000B7FBF0F004012009642101FB1078A889CF
:1017200000F4004040B1322000EBC800B0FBF1F003
:1017300000F00700044308E0322000EB08106421A9
:10174000B0FBF1F000F00F0004432C81BDE8FF87EF
:10175000001001400014014010B5044600BF802174
:101760000448FFF781FF0028F9D02146014800F026
:1017700003F810BD00100140C1F3080282807047D9
:101780003EB5044600251CB93020FFF7E5FF3EBDFD
:101790000DE00A20B4FBF0F100FB11403030294687
:1017A0006A1C55B20DF801000A20B4FBF0F40CB12C
:1017B0000A2DEEDB03E01DF80500FFF7CDFF281E24
:1017C000A5F101014DB2F6DC00BFE0E73EB50546EC
:1017D0000C46611E48B208E005F00F01094A515C51
:1017E0000DF800102D09411E48B20028F4DA00203F
:1017F0000DF8040004A000F009F8684600F006F8AF
:101800003EBD00003C1900083078000010B50446C9
:1018100003E014F8010BFFF79FFF14B120780028B4
:10182000F7D110BD00BFFEE702E008C8121F08C1D3
:10183000002AFAD170477047002001E001C1121F51
:10184000002AFBD170470000FFF7F5FDFFF7EDFD23
:10185000FFF794F8FFF7B8FEFEF75EFF14A0FFF75E
:10186000D5FF15A0FFF7D2FF17A0FFF7CFFF1AA0F3
:10187000FFF7CCFF21A0FFF7C9FF28A0FFF7C6FFA5
:1018800015E0FFF7AFF808B1FEF76EFDFFF73EF881
:1018900008B1FEF7D7FCFFF755F808B1FEF7E6FCF4
:1018A000FEF7C6FCFEF7D8FC0120FEF79EFCE8E739
:1018B0000D0A3D3D3D3D2000464D3234434C36340B
:1018C000422D4754520000002074657374203D3D42
:1018D0003D3D0D0A00000000574B5F55503A207304
:1018E000696E676C65206164647265737320522F42
:1018F000572064656D6F0D0A000000004B4559309C
:101900003A2062797465206C696665207465737429
:101910002073746172740D0A000000004B45593148
:101920003A2070616765206C696665207465737420
:101930002073746172740D0A00000000303132337C
:1019400034353637383941424344454600000000BB
:101950007019000800000020380000002818000856
:10196000A8190008380000200020000038180008DE
:101970000000000001020304010203040607080935
:10198000007A030A000000000000000001020304C6
:101990000607080900000000000000000000000029
:0819A00000000000000000003F
:040000050800018965
:00000001FF
