:020000040800F2
:10000000382000209D010008210D00088D07000800
:100010001D0D0008E50100083D1700080000000064
:10002000000000000000000000000000291200088D
:10003000E901000800000000890F000841130008D2
:10004000B7010008B7010008B7010008B7010008B0
:10005000B7010008B7010008B7010008B7010008A0
:10006000B7010008B7010008B7010008B701000890
:10007000B7010008B7010008B7010008B701000880
:10008000B7010008B7010008B7010008B701000870
:10009000B7010008B7010008B7010008B701000860
:1000A000B7010008B7010008B7010008B701000850
:1000B000B7010008B7010008B7010008B701000840
:1000C000B7010008B7010008B7010008B701000830
:1000D000B7010008B7010008B7010008B701000820
:1000E000B7010008B7010008B7010008B701000810
:1000F000B7010008B7010008B7010008B701000800
:10010000B7010008B7010008B7010008B7010008EF
:10011000B7010008B7010008B7010008B7010008DF
:10012000B7010008B7010008B7010008B7010008CF
:10013000B7010008B7010008B7010008B7010008BF
:10014000B7010008B7010008B7010008B7010008AF
:10015000B7010008B7010008B7010008B70100089F
:10016000B7010008B7010008B7010008B70100088F
:10017000B7010008B7010008B7010008B70100087F
:10018000B7010008B7010008DFF80CD000F018F83C
:1001900000480047611700083820002006488047C3
:1001A00006480047FEE7FEE7FEE7FEE7FEE7FEE75C
:1001B000FEE7FEE7FEE7FEE7791400088901000884
:1001C000064C074D06E0E06840F0010394E80700A4
:1001D00098471034AC42F6D3FFF7DAFF5018000806
:1001E0007018000800BFFEE770474FF0E021096972
:1001F00021F001014FF0E022116145F20821414355
:10020000491E5161002191611146096941F00101C6
:10021000116100BF4FF0E021096901F4803100292C
:10022000F8D000214FF0E0221161916170474FF04A
:10023000E021096921F001014FF0E0221161C0EBDA
:10024000C00101EB4101491E51610021916111463C
:10025000096941F00101116100BF4FF0E021096916
:1002600001F480310029F8D000214FF0E022116123
:100270009161704710B50348007808B100F088FC20
:1002800010BD00002400002010B50348007808B914
:1002900000F036FC10BD00002400002010B503481B
:1002A000007808B100F090FD10BD00002E00002085
:1002B00010B50348007808B900F034FD10BD000007
:1002C0002E0000202DE9F04104460D46B4F5802FA4
:1002D00000D215B90120BDE8F081A6B2204600F099
:1002E0004DFA074601212E4800F0D0FA2D4800F0C3
:1002F00067FB08B10120EEE700223946284800F0EC
:1003000055FB294800F05CFB08B10120E3E73112FE
:10031000234800F053FB2448801C00F051FB08B137
:100320000120D8E7F1B21E4800F048FB1E48801CAF
:1003300000F046FB08B10120CDE70121184800F08C
:10034000A5FA184800F03CFB08B10120C3E70122E0
:100350003946134800F02AFB1248401C00F030FBDD
:1003600008B10120B7E700210D4800F011FA0D484F
:100370003F3000F025FB28B10121094800F008FAC0
:100380000120A8E7064800F00DFB28700121044871
:1003900000F088FA0121024800F0FAF900209AE7FB
:1003A0000054004001000300820007001CB530A08B
:1003B00001F0B8F906214FF4007001F093F934A070
:1003C00001F0B0F902216A2001F08CF96A214FF4A2
:1003D000007000F005F9002822D12FA001F0A2F949
:1003E0000020009069464FF40070FFF76BFF98B94A
:1003F0002EA001F097F902219DF8000001F072F99A
:100400009DF800006A2803D12FA001F08BF906E0C7
:1004100031A001F087F902E034A001F083F903E094
:100420003AA001F07FF91CBD002001903CA001F032
:1004300079F906214FF4007001F054F940A001F061
:1004400071F901A94FF40070FFF73CFF58B93EA0C5
:1004500001F068F902219DF8040001F043F92FA092
:1004600001F060F902E03DA001F05CF900BFDAE7BD
:100470000D0A5B494E464F5D2053746172742077BC
:100480007269746520616464726573732000000092
:100490002064617461200000202D3E207772697411
:1004A0006520737563636573730D0A005B494E467F
:1004B0004F5D2056657269667920616674657220A9
:1004C00077726974653A2000202D3E207665726946
:1004D0006679206F6B0D0A00202D3E2076657269CB
:1004E0006679206661696C65640D0A005B4552524D
:1004F0004F525D207665726966792072656164206D
:100500006661696C65640D0A00000000202D3E20C4
:100510007772697465206661696C65640D0A000014
:100520005B494E464F5D205374616E64616C6F6E23
:100530006520726561642061646472657373200074
:10054000202D3E20000000007265616420737563F9
:10055000636573732076616C7565200072656164F4
:10056000206661696C65640D0A00000070B5044680
:100570000A2527E00121164800F088F9154800F007
:100580001FFA20B10121124800F08CF91AE0002274
:1005900021460F4800F00AFA0F4800F011FA28B976
:1005A00001210B4800F07EF9002070BD0B4908487E
:1005B00000F00FF90121064800F074F96420FFF7FC
:1005C00036FE00BF281EA5F10105D3D10120ECE7BE
:1005D00000540040010003008200070000040010E6
:1005E0002DE9F04104460E46B4F5802F02D30120D8
:1005F000BDE8F081A5B2204600F0C0F80746012111
:10060000214800F043F9214800F0DAF908B101204F
:10061000EEE7002239461C4800F0C8F91C4800F0FB
:10062000CFF908B10120E3E72912174800F0C6F915
:100630001748801C00F0C4F908B10120D8E7E9B2DE
:10064000114800F0BBF91248801C00F0B9F908B15C
:100650000120CDE731460C4800F0B0F90C48801C71
:1006600000F0AEF908B10120C2E70121064800F010
:1006700019F90A20FFF7B9FD3846FFF777FF08B1EF
:100680000120B5E70020B3E700540040010003005B
:1006900082000700F0B50A4600210023002400BFB5
:1006A0003DE0012505FA01F3156805EA03049C42C3
:1006B00034D105684F000326BE40B5430560157967
:1006C0004E00B5400668354305601579012D02D00E
:1006D0001579022D16D185684F000326BE40B5431B
:1006E000856055794E00B54086683543856045681C
:1006F00001268E40B5434560456896798E40B6B276
:1007000035434560C5684F000326BE40B543C5600C
:10071000D5794E00B540C6683543C560491C1029DF
:10072000BFD3F0BDF0B5002300244D07ED0E02FA53
:1007300005F3CE1000F1200555F826504E07F70EB0
:100740000F26BE40B543CF1000F1200646F82750D3
:10075000CE1000F1200555F8265045EA0304CE10CE
:1007600000F1200545F82640F0BD0246002013693F
:100770000B400BB1012000E0002070470146C1F39F
:100780000142A02000EB4200C0B2704700BFFEE76C
:1007900021B1028842F48062028004E002884FF6B0
:1007A000FF331A400280704770B5024600240025CE
:1007B00000230020958A138B1B0445EA030626F0CC
:1007C0007F4404EA01068E4201D1012000E00020AE
:1007D00070BD002221F07F42D3438382704721B154
:1007E000028842F00102028004E002884FF6FE73A4
:1007F0001A4002807047000000B587B0012148050B
:1008000000F0D4FB0121022000F0C0FB4FF4407047
:10081000059002208DF8180001208DF81A000220A2
:100820008DF8190001208DF81B0005A91448FFF769
:1008300031FF042208211248FFF774FF0422092126
:100840000F48FFF76FFF0F4801900020ADF8080038
:100850004BF6FF70ADF80A000020ADF80C004FF425
:100860008060ADF80E000001ADF8100001A9064847
:1008700000F024F801210448FFF7B1FF07B000BDE4
:1008800000040240801A06000054004021B1028892
:1008900042F48072028004E002884FF6FF631A403F
:1008A0000280704721B1028842F40072028004E0A5
:1008B00002884FF6FF531A40028070472DE9FF4728
:1008C00004460D460026B1460427DFF8CC80A688F2
:1008D0004FF6C0700640684600F0BAFBDDF80880AD
:1008E0002E48B8FBF0F01FFA80F946EA0906A68008
:1008F00020884FF6FE71084020800026284928688D
:1009000088420CD828684000B8FBF0F087B2042F6A
:1009100000DA04273E4309F10100208427E0E8883B
:100920004BF6FF71884206D1286800EB4000B8FB07
:10093000F0F087B209E0286800EBC00101EB00107D
:10094000B8FBF0F087B247F48047C7F30B0008B953
:1009500047F0010747F4004006434FF4967009FB47
:1009600000F04FF47A7190FBF1F0401C2084A683D4
:10097000208840F00100208026884FF6F5300640A0
:10098000A8886989084306432680A88929890843DD
:100990002081BDE8FF87000000127A0040420F006E
:1009A000A08601000146088AC0B2704712B141F02A
:1009B000010101E001F0FE010182704701827047F0
:1009C00070B50446074D05E0281EA5F1010501D1CB
:1009D000012070BD21460448FFF7E6FE0028F3D051
:1009E0000020F6E7A08601000054004010B5102159
:1009F0000B48FFF7BAFE80B90A20FFF7F6FB10217B
:100A00000748FFF7B2FE40B900BF10210448FFF7C6
:100A1000ACFE0028F9D0012010BD0020FCE700004A
:100A20000010024010B508210B48FFF79EFE80B968
:100A30000A20FFF7DAFB08210748FFF796FE40B9C6
:100A400000BF08210448FFF790FE0028F9D00120DC
:100A500010BD0020FCE70000001002401CB5012181
:100A6000084600F093FA0121102000F08FFA0121CE
:100A7000102000F08BFA0120009000208DF8040077
:100A80008DF8060002208DF805008DF807006946F4
:100A90000A48FFF7FFFD1020009001208DF80700A5
:100AA00069460748FFF7F6FD0820009001208DF801
:100AB000070069460248FFF7EDFD1CBD000002403B
:100AC0000010024010B501210C48FFF74EFE01282E
:100AD00011D10A20FFF789FB01210848FFF745FEE5
:100AE000012808D100BF01210448FFF73EFE01287C
:100AF000F9D0012010BD0020FCE7000000000240FA
:100B000010B501200E49087000200E4908600E49FA
:100B100008700E4908700EA000F004FE0621662041
:100B200000F0E0FD12A000F0FDFD0221012000F028
:100B3000D9FD11A000F0F6FD14A000F0F3FD10BDEA
:100B400024000020280000202C0000202D00002080
:100B50000D0A5B34627974655D206C69666520748A
:100B60006573742073746172742061646472200010
:100B7000206C656E20000000207061747465726ED8
:100B80002041412F35350D0A000000000D0A0000FC
:100B9000F8B53248007800F166053148007808B9A8
:100BA000AA2000E05520044621462846FFF718FDFC
:100BB00018B12CA000F07EF8F8BD00200090694626
:100BC0002846FFF77FFB18B129A000F073F8F3E780
:100BD0009DF80000A04217D028480068461C28A0B5
:100BE00000F0A0FD304600F057FD29A000F09AFD6E
:100BF00002219DF8000000F075FD27A000F092FD95
:100C000026A000F057F8D7E714480078401C134995
:100C1000087008460078F0B100200870104800788D
:100C200080F001000E49087014480068401C134908
:100C30000860084600686421B0FBF1F201FB120075
:100C400048B90FA000F06EFD0C48006800F024FDCC
:100C500016A000F067FD00BFAEE700002D000020E9
:100C60002C0000207772697465206572726F7200C3
:100C700072656164206572726F7200002800002046
:100C800074657374206E756D6265722000000000DB
:100C9000204E4F20000000000D0A000064617461C6
:100CA000206D69736D61746368000000204F4B0D07
:100CB0000A00000010B5044600200949087009A088
:100CC00000F030FD204600F02DFD0EA000F02AFDC2
:100CD0001048006800F0E0FC0FA000F023FD10BDFC
:100CE000240000205B34627974655D206C69666560
:100CF00020746573742073746F7020726561736FF4
:100D00006E3A200020746F74616C2077726974658C
:100D100073200000280000200D0A000000BFFEE73D
:100D20007047000010B501201449087000201449D4
:100D30000860144908701449087014A000F0F2FC0F
:100D400006214FF4006000F0CDFC18A000F0EAFC92
:100D50000421880100F0C6FC16A000F0E3FC02218B
:100D6000552000F0BFFC16A000F0DCFC0221AA20F8
:100D700000F0B8FC13A000F0D5FC10BD2E00002040
:100D80003000002034000020350000200D0A5B7088
:100D90006167655D20706167652074657374207399
:100DA000746172742061646472200000206C656E4E
:100DB00020000000207061747465726E20000000D5
:100DC0002F0000000D0A0000F8B53848007808B977
:100DD000552000E0AA2006464FF40064002511E0EB
:100DE0003348007818B133A000F096F8F8BD6019C8
:100DF0003146FFF7F5FB18B131A000F08DF8F5E7AB
:100E0000681C85B2FF2DEBD900252FE0284800781B
:100E100018B128A000F080F8E8E7002000906719DA
:100E200069463846FFF74EFA18B128A000F074F86A
:100E3000DCE79DF80000B04216D027A000F072FC5D
:100E400027480068401C00F027FC26A000F06AFC40
:100E500002219DF8000000F045FC24A000F062FC97
:100E600023A000F059F8C1E7681C85B2FF2DCDD949
:100E70000F48007818B10FA000F04EF8B6E71848F8
:100E80000068401C164908600848007880F001009E
:100E9000064908701AA000F045FC1148006800F0EF
:100EA000FBFB1BA000F03EFC00BF9FE734000020CE
:100EB000350000206D616E75616C2073746F700079
:100EC0007772697465206572726F72007265616411
:100ED000206572726F720000436F756E742000009F
:100EE00030000020204E4F20000000000D0A0000BE
:100EF00064617461206D69736D61746368000000E2
:100F00005B706167655D20436F756E742000000043
:100F1000204F4B0D0A00000010B5044600200A497E
:100F200008700A4908700AA000F0FCFB204600F097
:100F3000F9FB0FA000F0F6FB1148006800F0ACFBD5
:100F400010A000F0EFFB10BD2E00002035000020A7
:100F50005B706167655D207061676520746573749F
:100F60002073746F7020726561736F6E3A20000099
:100F700020746F74616C206379636C65732000006A
:100F8000300000200D0A00007047000029B1064A19
:100F900012680243044B1A6004E0034A1268824359
:100FA000014B1A60704700003038024029B1064AF0
:100FB00012680243044B1A6004E0034A1268824339
:100FC000014B1A60704700004038024029B1064AC0
:100FD00012680243044B1A6004E0034A1268824319
:100FE000014B1A6070470000443802401448006802
:100FF00040F00100124908600020114908310860E2
:101000000F4800680F4908400D4908600E48091D47
:1010100008600E480A49843108600B481038091DE1
:1010200008600748006820F4802005490860002017
:1010300003490C31086002498C3108607047000098
:1010400000380240FFFFF6EA103000240030002094
:10105000F0B5002100220024022500260223324F91
:101060003F6807F00C0121B1042905D0082937D1C8
:1010700005E02E4F076036E02D4F076033E02A4F22
:101080003F1F3F68C7F38056274F3F1F3F6807F059
:101090003F036EB1264FB7FBF3F7DFF88CC0ACF11E
:1010A000040CDCF800C0CCF3881C07FB0CF40CE04B
:1010B0001E4FB7FBF3F7DFF870C0ACF1040CDCF89F
:1010C00000C0CCF3881C07FB0CF4174F3F1F3F6890
:1010D000C7F301477F1C7D00B4FBF5F7076002E012
:1010E000124F076000BF00BF0F4F3F6807F0F001CD
:1010F0000909104F7A5C0768D74047600A4F3F687C
:1011000007F4E051890A0B4F7A5C4768D740876043
:10111000054F3F6807F46041490B064F7A5C47680A
:10112000D740C760F0BD0000083802400024F4003A
:1011300000127A000000002010B5014600220023B2
:1011400000204A11012A02D10A4C236808E0022A31
:1011500003D1084C7034236802E0064C74342368D1
:1011600001F01F02012494401C400CB1012000E05A
:10117000002010BD003802400248006800F00C005A
:10118000704700000838024001460020034A1068FA
:1011900020F0F0000843106070470000083802405B
:1011A0000021024A1170114608707047023802404F
:1011B00001460020034A106820F4E0500843106004
:1011C000704700000838024001460020034A1068BA
:1011D00020F4604040EAC1001060704708380240C7
:1011E00001490866704700000000474270B5049C42
:1011F00041EA82150126C6EB530645EA064505433A
:1012000045EA0465014E356070BD000004380240B7
:1012100001460020034A106820F0030008431060D4
:101220007047000008380240704700000CB50020ED
:10123000019000903448006840F4803032490860E2
:1012400000BF3148006800F4003000900198401C55
:101250000190009818B90198B0F5A04FF1D12A4833
:10126000006800F4003010B10120009001E000207F
:1012700000900098012846D123484030006840F093
:1012800080502149403108602048006840F44040C7
:101290001E4908601C48083000681B490831086076
:1012A0000846006840F4004008600846006840F4C2
:1012B000A05008601648091F0860081F006840F029
:1012C0008070091F086000BF0F48006800F00070C0
:1012D0000028F9D040F205700E4908600A4808302D
:1012E000006820F0030008490831086008460068DB
:1012F00040F00200086000BF03480830006800F0BA
:101300000C000828F8D10CBD0038024000700040E5
:1013100008544007003C0240042808D14FF0E02167
:10132000096941F004014FF0E022116107E04FF03C
:10133000E021096921F004014FF0E02211617047BA
:10134000704710B56FF00400FFF7E6FF10BD08B559
:10135000FFF74CFE0120FFF723FF00BF3120FFF70E
:10136000EBFE0028FAD0072002234FF4A8720821D0
:101370000090C804FFF73AFF0120FFF731FF00BFDC
:101380003920FFF7D9FE0028FAD00220FFF740FFEE
:1013900000BFFFF7F1FE0828FBD10020FFF7F4FEA5
:1013A0004FF4A050FFF704FF4FF48050FFF70CFFFD
:1013B00000F002F808BD000070B5002000220223F2
:1013C00000240221274D2D6805F00C0020B10428CF
:1013D00006D0082834D107E0234D244E356033E091
:1013E000234D224E35602FE01E4D2D1F2D68C5F375
:1013F00080541C4D2D1F2D6805F03F0154B11C4D2C
:10140000B5FBF1F5174E361F3668C6F3881605FB97
:1014100006F209E0144DB5FBF1F5124E361F3668A1
:10142000C6F3881605FB06F20E4D2D1F2D68C5F379
:1014300001456D1C6B00B2FBF3F50C4E356003E00B
:10144000094D0A4E356000BF00BF064D2D68C5F33B
:101450000315084E705D054D2D68C540034E35607F
:1014600070BD0000083802400024F4001000002085
:1014700000127A001400002010B51548006840F4EE
:101480007000134908601348006840F001001149DA
:10149000086000200F49083108600E4800680E49B6
:1014A00008400C4908600D48091D0860081F0068C5
:1014B00020F48020091F0860002006490C310860D4
:1014C000FFF7B4FE4FF0006001498039086010BD9D
:1014D00088ED00E000380240FFFFF6FE10300024E7
:1014E00000B587B001211020FFF770FD01210846EB
:1014F000FFF74CFD4FF4C060059002208DF81800F6
:1015000000208DF81A0002208DF8190001208DF8B6
:101510001B0005A91248FFF7BDF807220921104852
:10152000FFF700F907220A210D48FFF7FBF84FF4F7
:10153000E13001900020ADF80800ADF80A00ADF8E8
:101540000C00ADF810000C20ADF80E0001A9054804
:1015500000F024F80121034800F006F807B000BDB0
:10156000000002400010014021B1828942F4005283
:10157000828104E082894DF6FF731A4082817047B0
:1015800002460020B1F5007F00D100BF13880B4058
:101590000BB1012000E00020704700002DE9FF475B
:1015A00005460E460024A14600BFA046B08900B102
:1015B00000BF2C8A24F44054F08804432C82AC8968
:1015C00041F20C608443B088318908437189084333
:1015D0000443AC81AC8A24F44074B0890443AC82E7
:1015E0006846FFF735FD2048854202D01F488542F6
:1015F00002D1DDF80C9001E0DDF80890A88900F434
:10160000004040B109EBC90000EB09103168490006
:10161000B0FBF1F707E009EBC90000EB09103168F6
:101620008900B0FBF1F76420B7FBF0F0040120095A
:10163000642101FB1078A88900F4004040B13220F9
:1016400000EBC800B0FBF1F000F00700044308E035
:10165000322000EB08106421B0FBF1F000F00F0025
:1016600004432C81BDE8FF870010014000140140B5
:1016700010B5044600BF80210448FFF781FF002811
:10168000F9D02146014800F003F810BD00100140D8
:10169000C1F30802828070473EB5044600251CB99C
:1016A0003020FFF7E5FF3EBD0DE00A20B4FBF0F16E
:1016B00000FB1140303029466A1C55B20DF801007C
:1016C0000A20B4FBF0F40CB10A2DEEDB03E01DF8A8
:1016D0000500FFF7CDFF281EA5F101014DB2F6DC94
:1016E00000BFE0E73EB505460C46611E48B208E083
:1016F00005F00F01094A515C0DF800102D09411E3B
:1017000048B20028F4DA00200DF8040004A000F02C
:1017100009F8684600F006F83EBD00003C180008D5
:101720003078000010B5044603E014F8010BFFF711
:101730009FFF14B120780028F7D110BD00BFFEE74D
:1017400002E008C8121F08C1002AFAD1704770478A
:10175000002001E001C1121F002AFBD170470000E8
:10176000FFF7F5FDFFF7EDFDFFF778F9FFF7B8FE9E
:10177000FFF742F811A0FFF7D5FF17A0FFF7D2FF40
:101780001EA0FFF7CFFF25A0FFF7CCFF15E0FFF766
:1017900099F908B1FEF70AFEFFF728F908B1FEF73C
:1017A00073FDFFF73FF908B1FEF782FDFEF762FD1A
:1017B000FEF774FD0120FEF718FDE8E70D0A3D3D38
:1017C0003D3D204D32344D30322074657374203DE0
:1017D0003D3D3D0D0A000000574B5F55503A2073C8
:1017E000696E676C65206164647265737320522F43
:1017F000572064656D6F0D0A000000004B4559309D
:101800003A20342D62797465206C696665207465B0
:1018100073742073746172740D0A00004B45593162
:101820003A2070616765206C696665207465737421
:101830002073746172740D0A00000000303132337D
:1018400034353637383941424344454600000000BC
:101850007018000800000020380000004017000841
:10186000A8180008380000200020000050170008C9
:101870000000000001020304010203040607080936
:10188000007A030A000000000000000001020304C7
:10189000060708090000000000000000000000002A
:0818A000000000000000000040
:040000050800018965
:00000001FF
